:100000000C943E000C9448000C9448000C9448005A
:100010000C9448000C9448000C9448000C94480040
:100020000C9448000C9448000C9448000C94480030
:100030000C9448000C9448000C9448000C94480020
:100040000C9448000C9448000C9448000C94480010
:100050000C9448000C9448000C9448000C94480000
:100060000C9448000C9448000C9448000C944800F0
:100070000C9448000C9448000C94480011241FBEB6
:10008000CFEFD0E1DEBFCDBF0E944A000C945E00EE
:100090000C94000011B814B817B81AB8089A569AF8
:1000A00010985E9A8FEF9FEF28EC30E0F9013197BE
:1000B000F1F70197D9F780E090E00895F894FFCF29
:00000001FF
